{
  "_format": "hh-sol-artifact-1",
  "contractName": "Chest",
  "sourceName": "contracts/Chest/Chest.sol",
  "abi": [
    {
      "inputs": [
        {
          "internalType": "string",
          "name": "name",
          "type": "string"
        },
        {
          "internalType": "string",
          "name": "type_",
          "type": "string"
        }
      ],
      "stateMutability": "nonpayable",
      "type": "constructor"
    },
    {
      "anonymous": false,
      "inputs": [
        {
          "indexed": true,
          "internalType": "address[]",
          "name": "items",
          "type": "address[]"
        },
        {
          "indexed": true,
          "internalType": "uint256[]",
          "name": "tokenIds",
          "type": "uint256[]"
        },
        {
          "indexed": true,
          "internalType": "uint256[]",
          "name": "amounts",
          "type": "uint256[]"
        },
        {
          "indexed": false,
          "internalType": "uint8[]",
          "name": "type_",
          "type": "uint8[]"
        },
        {
          "indexed": false,
          "internalType": "address",
          "name": "depositor",
          "type": "address"
        }
      ],
      "name": "Deposit",
      "type": "event"
    },
    {
      "anonymous": false,
      "inputs": [
        {
          "indexed": true,
          "internalType": "address[]",
          "name": "items",
          "type": "address[]"
        },
        {
          "indexed": true,
          "internalType": "uint256[]",
          "name": "tokenIds",
          "type": "uint256[]"
        },
        {
          "indexed": true,
          "internalType": "uint256[]",
          "name": "amounts",
          "type": "uint256[]"
        },
        {
          "indexed": false,
          "internalType": "address",
          "name": "looter",
          "type": "address"
        }
      ],
      "name": "Looted",
      "type": "event"
    },
    {
      "anonymous": false,
      "inputs": [
        {
          "indexed": true,
          "internalType": "address",
          "name": "previousOwner",
          "type": "address"
        },
        {
          "indexed": true,
          "internalType": "address",
          "name": "newOwner",
          "type": "address"
        }
      ],
      "name": "OwnershipTransferred",
      "type": "event"
    },
    {
      "inputs": [
        {
          "internalType": "address[]",
          "name": "tokens",
          "type": "address[]"
        }
      ],
      "name": "addWhitelist",
      "outputs": [],
      "stateMutability": "nonpayable",
      "type": "function"
    },
    {
      "inputs": [
        {
          "internalType": "address[]",
          "name": "items",
          "type": "address[]"
        },
        {
          "internalType": "uint256[]",
          "name": "tokenIds",
          "type": "uint256[]"
        },
        {
          "internalType": "uint256[]",
          "name": "amounts",
          "type": "uint256[]"
        }
      ],
      "name": "batchDeposit",
      "outputs": [
        {
          "internalType": "bool",
          "name": "success",
          "type": "bool"
        }
      ],
      "stateMutability": "nonpayable",
      "type": "function"
    },
    {
      "inputs": [
        {
          "internalType": "address[]",
          "name": "items",
          "type": "address[]"
        },
        {
          "internalType": "uint256[]",
          "name": "tokenIds",
          "type": "uint256[]"
        },
        {
          "internalType": "uint256[]",
          "name": "amounts",
          "type": "uint256[]"
        }
      ],
      "name": "batchLoot",
      "outputs": [
        {
          "internalType": "address[]",
          "name": "items_",
          "type": "address[]"
        },
        {
          "internalType": "uint256[]",
          "name": "tokenIds_",
          "type": "uint256[]"
        },
        {
          "internalType": "uint256[]",
          "name": "amounts_",
          "type": "uint256[]"
        },
        {
          "internalType": "uint8[]",
          "name": "type_",
          "type": "uint8[]"
        }
      ],
      "stateMutability": "nonpayable",
      "type": "function"
    },
    {
      "inputs": [],
      "name": "chest",
      "outputs": [
        {
          "components": [
            {
              "internalType": "uint256",
              "name": "_value",
              "type": "uint256"
            }
          ],
          "internalType": "struct Counters.Counter",
          "name": "opennedCounter",
          "type": "tuple"
        },
        {
          "internalType": "uint256",
          "name": "lastTimeOpenned",
          "type": "uint256"
        },
        {
          "internalType": "address",
          "name": "creator",
          "type": "address"
        },
        {
          "internalType": "string",
          "name": "name",
          "type": "string"
        },
        {
          "internalType": "string",
          "name": "type_",
          "type": "string"
        }
      ],
      "stateMutability": "view",
      "type": "function"
    },
    {
      "inputs": [
        {
          "internalType": "address",
          "name": "",
          "type": "address"
        },
        {
          "internalType": "uint256",
          "name": "",
          "type": "uint256"
        }
      ],
      "name": "isInside",
      "outputs": [
        {
          "internalType": "bool",
          "name": "",
          "type": "bool"
        }
      ],
      "stateMutability": "view",
      "type": "function"
    },
    {
      "inputs": [],
      "name": "locked",
      "outputs": [
        {
          "internalType": "bool",
          "name": "",
          "type": "bool"
        }
      ],
      "stateMutability": "view",
      "type": "function"
    },
    {
      "inputs": [],
      "name": "look",
      "outputs": [
        {
          "internalType": "address[]",
          "name": "items",
          "type": "address[]"
        },
        {
          "internalType": "uint256[]",
          "name": "tokenIds",
          "type": "uint256[]"
        },
        {
          "internalType": "uint256[]",
          "name": "amounts",
          "type": "uint256[]"
        },
        {
          "internalType": "uint8[]",
          "name": "type_",
          "type": "uint8[]"
        }
      ],
      "stateMutability": "view",
      "type": "function"
    },
    {
      "inputs": [
        {
          "internalType": "address",
          "name": "item",
          "type": "address"
        },
        {
          "internalType": "uint256",
          "name": "tokenId",
          "type": "uint256"
        },
        {
          "internalType": "uint256",
          "name": "amount",
          "type": "uint256"
        }
      ],
      "name": "loot",
      "outputs": [
        {
          "internalType": "address[]",
          "name": "items",
          "type": "address[]"
        },
        {
          "internalType": "uint256[]",
          "name": "tokenIds",
          "type": "uint256[]"
        },
        {
          "internalType": "uint256[]",
          "name": "amounts",
          "type": "uint256[]"
        },
        {
          "internalType": "uint8[]",
          "name": "type_",
          "type": "uint8[]"
        }
      ],
      "stateMutability": "nonpayable",
      "type": "function"
    },
    {
      "inputs": [
        {
          "internalType": "address",
          "name": "operator",
          "type": "address"
        },
        {
          "internalType": "address",
          "name": "from",
          "type": "address"
        },
        {
          "internalType": "uint256[]",
          "name": "ids",
          "type": "uint256[]"
        },
        {
          "internalType": "uint256[]",
          "name": "values",
          "type": "uint256[]"
        },
        {
          "internalType": "bytes",
          "name": "data",
          "type": "bytes"
        }
      ],
      "name": "onERC1155BatchReceived",
      "outputs": [
        {
          "internalType": "bytes4",
          "name": "",
          "type": "bytes4"
        }
      ],
      "stateMutability": "nonpayable",
      "type": "function"
    },
    {
      "inputs": [
        {
          "internalType": "address",
          "name": "operator",
          "type": "address"
        },
        {
          "internalType": "address",
          "name": "from",
          "type": "address"
        },
        {
          "internalType": "uint256",
          "name": "id",
          "type": "uint256"
        },
        {
          "internalType": "uint256",
          "name": "value",
          "type": "uint256"
        },
        {
          "internalType": "bytes",
          "name": "data",
          "type": "bytes"
        }
      ],
      "name": "onERC1155Received",
      "outputs": [
        {
          "internalType": "bytes4",
          "name": "",
          "type": "bytes4"
        }
      ],
      "stateMutability": "nonpayable",
      "type": "function"
    },
    {
      "inputs": [
        {
          "internalType": "address",
          "name": "operator",
          "type": "address"
        },
        {
          "internalType": "address",
          "name": "from",
          "type": "address"
        },
        {
          "internalType": "uint256",
          "name": "value",
          "type": "uint256"
        },
        {
          "internalType": "address",
          "name": "token",
          "type": "address"
        }
      ],
      "name": "onERC20Received",
      "outputs": [
        {
          "internalType": "bytes4",
          "name": "",
          "type": "bytes4"
        }
      ],
      "stateMutability": "nonpayable",
      "type": "function"
    },
    {
      "inputs": [
        {
          "internalType": "address",
          "name": "operator",
          "type": "address"
        },
        {
          "internalType": "address",
          "name": "from",
          "type": "address"
        },
        {
          "internalType": "uint256",
          "name": "tokenId",
          "type": "uint256"
        },
        {
          "internalType": "bytes",
          "name": "data",
          "type": "bytes"
        }
      ],
      "name": "onERC721Received",
      "outputs": [
        {
          "internalType": "bytes4",
          "name": "",
          "type": "bytes4"
        }
      ],
      "stateMutability": "nonpayable",
      "type": "function"
    },
    {
      "inputs": [],
      "name": "owner",
      "outputs": [
        {
          "internalType": "address",
          "name": "",
          "type": "address"
        }
      ],
      "stateMutability": "view",
      "type": "function"
    },
    {
      "inputs": [
        {
          "internalType": "address[]",
          "name": "tokens",
          "type": "address[]"
        }
      ],
      "name": "removeWhiteList",
      "outputs": [],
      "stateMutability": "nonpayable",
      "type": "function"
    },
    {
      "inputs": [],
      "name": "renounceOwnership",
      "outputs": [],
      "stateMutability": "nonpayable",
      "type": "function"
    },
    {
      "inputs": [
        {
          "internalType": "bytes4",
          "name": "interfaceId",
          "type": "bytes4"
        }
      ],
      "name": "supportsInterface",
      "outputs": [
        {
          "internalType": "bool",
          "name": "",
          "type": "bool"
        }
      ],
      "stateMutability": "pure",
      "type": "function"
    },
    {
      "inputs": [],
      "name": "switchLock",
      "outputs": [],
      "stateMutability": "nonpayable",
      "type": "function"
    },
    {
      "inputs": [
        {
          "internalType": "address",
          "name": "",
          "type": "address"
        }
      ],
      "name": "tokenType",
      "outputs": [
        {
          "internalType": "enum ChestHolder.Token",
          "name": "",
          "type": "uint8"
        }
      ],
      "stateMutability": "view",
      "type": "function"
    },
    {
      "inputs": [
        {
          "internalType": "address",
          "name": "",
          "type": "address"
        }
      ],
      "name": "tokenWhiteListed",
      "outputs": [
        {
          "internalType": "bool",
          "name": "",
          "type": "bool"
        }
      ],
      "stateMutability": "view",
      "type": "function"
    },
    {
      "inputs": [
        {
          "internalType": "address",
          "name": "newOwner",
          "type": "address"
        }
      ],
      "name": "transferOwnership",
      "outputs": [],
      "stateMutability": "nonpayable",
      "type": "function"
    }
  ],
  "bytecode": "0x60806040523480156200001157600080fd5b5060405162003dea38038062003dea83398101604081905262000034916200024d565b6200003f336200008a565b600160085581516200005990600c906020850190620000da565b5080516200006f90600d906020840190620000da565b5050600b80546001600160a01b0319163317905550620002f4565b600080546001600160a01b038381166001600160a01b0319831681178455604051919092169283917f8be0079c531659141344cd1fd0a4f28419497f9722a3daafe3b4186f6b6457e09190a35050565b828054620000e890620002b7565b90600052602060002090601f0160209004810192826200010c576000855562000157565b82601f106200012757805160ff191683800117855562000157565b8280016001018555821562000157579182015b82811115620001575782518255916020019190600101906200013a565b506200016592915062000169565b5090565b5b808211156200016557600081556001016200016a565b634e487b7160e01b600052604160045260246000fd5b600082601f830112620001a857600080fd5b81516001600160401b0380821115620001c557620001c562000180565b604051601f8301601f19908116603f01168101908282118183101715620001f057620001f062000180565b816040528381526020925086838588010111156200020d57600080fd5b600091505b8382101562000231578582018301518183018401529082019062000212565b83821115620002435760008385830101525b9695505050505050565b600080604083850312156200026157600080fd5b82516001600160401b03808211156200027957600080fd5b620002878683870162000196565b935060208501519150808211156200029e57600080fd5b50620002ad8582860162000196565b9150509250929050565b600181811c90821680620002cc57607f821691505b60208210811415620002ee57634e487b7160e01b600052602260045260246000fd5b50919050565b613ae680620003046000396000f3fe608060405234801561001057600080fd5b506004361061012c5760003560e01c8063715018a6116100ad578063cf30901211610071578063cf309012146102d4578063edac985b146102e8578063f23a6e61146102fb578063f2fde38b1461030e578063f47f4e381461032157600080fd5b8063715018a61461024d5780638da5cb5b14610255578063b6bc4bad14610270578063bc197c811461029e578063c00dc402146102b157600080fd5b80635174210d116100f45780635174210d146101ee57806362e9fa2c1461020157806364026ac0146102095780636865aece146102225780636c050eae1461024557600080fd5b806301ffc9a71461013157806307851be81461016a578063150b7a021461017d57806339745791146101a9578063442c1a06146101be575b600080fd5b61015561013f366004612e6b565b6001600160e01b031916630f79af5b60e41b1490565b60405190151581526020015b60405180910390f35b610155610178366004612fe2565b610334565b61019061018b366004613069565b6108bb565b6040516001600160e01b03199091168152602001610161565b6101bc6101b7366004613128565b610a34565b005b6101e16101cc366004613164565b60076020526000908152604090205460ff1681565b6040516101619190613195565b6101906101fc3660046131bd565b610a9f565b6101bc610c3b565b610211610c64565b604051610161959493929190613262565b6102356102303660046132ae565b610da7565b604051610161949392919061334f565b6102356112c9565b6101bc6115d2565b6000546040516001600160a01b039091168152602001610161565b61015561027e3660046133d9565b600260209081526000928352604080842090915290825290205460ff1681565b6101906102ac36600461348f565b6115e6565b6101556102bf366004613164565b60016020526000908152604090205460ff1681565b60005461015590600160a01b900460ff1681565b6101bc6102f6366004613128565b61185e565b610190610309366004613549565b611b00565b6101bc61031c366004613164565b611c7b565b61023561032f366004612fe2565b611cf4565b600061033e6124c6565b600054600160a01b900460ff16156103715760405162461bcd60e51b8152600401610368906135c0565b60405180910390fd5b82518451148015610383575081518451145b6103f55760405162461bcd60e51b815260206004820152603c60248201527f43686573743a206c656e677468206f66206974656d7320616e6420696473206160448201527f6e6420616d6f756e747320617265206e6f74207468652073616d652e000000006064820152608401610368565b600084516001600160401b0381111561041057610410612e95565b604051908082528060200260200182016040528015610439578160200160208202803683370190505b50905060005b855181101561083457600160076000888481518110610460576104606135f7565b6020908102919091018101516001600160a01b031682528101919091526040016000205460ff1660038111156104985761049861317f565b14156105c0578581815181106104b0576104b06135f7565b60200260200101516001600160a01b03166323b872dd33308785815181106104da576104da6135f7565b60200260200101516040518463ffffffff1660e01b81526004016105009392919061360d565b602060405180830381600087803b15801561051a57600080fd5b505af115801561052e573d6000803e3d6000fd5b505050506040513d601f19601f820116820180604052508101906105529190613631565b50610591303386848151811061056a5761056a6135f7565b6020026020010151898581518110610584576105846135f7565b6020026020010151610a9f565b5060015b8282815181106105a7576105a76135f7565b602002602001019060ff16908160ff1681525050610822565b6002600760008884815181106105d8576105d86135f7565b6020908102919091018101516001600160a01b031682528101919091526040016000205460ff1660038111156106105761061061317f565b14156106b357858181518110610628576106286135f7565b60200260200101516001600160a01b03166342842e0e3330888581518110610652576106526135f7565b60200260200101516040518463ffffffff1660e01b81526004016106789392919061360d565b600060405180830381600087803b15801561069257600080fd5b505af11580156106a6573d6000803e3d6000fd5b5060029250610595915050565b6003600760008884815181106106cb576106cb6135f7565b6020908102919091018101516001600160a01b031682528101919091526040016000205460ff1660038111156107035761070361317f565b14156107c15785818151811061071b5761071b6135f7565b60200260200101516001600160a01b031663f242432a3330888581518110610745576107456135f7565b602002602001015188868151811061075f5761075f6135f7565b60200260200101516040518563ffffffff1660e01b81526004016107869493929190613653565b600060405180830381600087803b1580156107a057600080fd5b505af11580156107b4573d6000803e3d6000fd5b5060039250610595915050565b6107ec8682815181106107d6576107d66135f7565b60200260200101516001600160a01b0316612520565b6040516020016107fc91906136c6565b60408051601f198184030181529082905262461bcd60e51b8252610368916004016136fc565b8061082c81613725565b91505061043f565b50826040516108439190613740565b6040518091039020846040516108599190613740565b60405180910390208660405161086f9190613776565b60405180910390207f2e13f5c0c5b1a2eb09fe26c255303b18fffedf835fe822a96d6b6c3fc4c82c9c84336040516108a89291906137a9565b60405180910390a4506001949350505050565b33600090815260016020819052604082205460ff161515146109535760405162461bcd60e51b8152602060048201526044602482018190527f6f6e524337323152656365697665643a20546f6b656e206973206e6f74207768908201527f697465206c697374656420746f2062652073746f72656420696e2074686520636064820152631a195cdd60e21b608482015260a401610368565b33600090815260026020908152604080832086845290915290205460ff166109f35733600081815260056020908152604080832060038054855290835281842088905580548585526004845282852089865284528285208190556001808201909255600080516020613a918339815191520180546001600160a01b03191686179055938352600282528083208784529091529020805460ff191690911790555b3360009081526006602090815260408083208684529091528120805460019290610a1e9084906137d3565b90915550630a85bd0160e11b9695505050505050565b610a3c6124c6565b60005b8151811015610a9b5760016000838381518110610a5e57610a5e6135f7565b6020908102919091018101516001600160a01b03168252810191909152604001600020805460ff1916905580610a9381613725565b915050610a3f565b5050565b6001600160a01b038116600090815260016020819052604082205460ff16151514610b405760405162461bcd60e51b8152602060048201526044602482018190527f6f6e455243323052656365697665643a20546f6b656e206973206e6f74207768908201527f697465206c697374656420746f2062652073746f72656420696e2074686520636064820152631a195cdd60e21b608482015260a401610368565b6001600160a01b038216600090815260026020908152604080832083805290915290205460ff16610bf2576001600160a01b038216600081815260056020908152604080832060038054855290835281842084905580548585526004845282852085805284528285208190556001808201909255600080516020613a918339815191520180546001600160a01b03191686179055938352600282528083208380529091529020805460ff191690911790555b6001600160a01b038216600090815260066020908152604080832083805290915281208054859290610c259084906137d3565b90915550635174210d60e01b9695505050505050565b610c436124c6565b6000805460ff60a01b198116600160a01b9182900460ff1615909102179055565b6040805160208101909152600980548252600a54600b54600c805492936001600160a01b0390921692610c96906137eb565b80601f0160208091040260200160405190810160405280929190818152602001828054610cc2906137eb565b8015610d0f5780601f10610ce457610100808354040283529160200191610d0f565b820191906000526020600020905b815481529060010190602001808311610cf257829003601f168201915b505050505090806004018054610d24906137eb565b80601f0160208091040260200160405190810160405280929190818152602001828054610d50906137eb565b8015610d9d5780601f10610d7257610100808354040283529160200191610d9d565b820191906000526020600020905b815481529060010190602001808311610d8057829003601f168201915b5050505050905085565b606080606080610db561253c565b600054600160a01b900460ff1615610ddf5760405162461bcd60e51b8152600401610368906135c0565b6001600160a01b038716600090815260026020908152604080832089845290915290205460ff16610e525760405162461bcd60e51b815260206004820152601e60248201527f6c6f6f743a206974656d206973206e6f7420696e2074686520636865737400006044820152606401610368565b6001600160a01b0387166000908152600660209081526040808320898452909152902054851115610eeb5760405162461bcd60e51b815260206004820152603760248201527f6c6f6f743a20616d6f756e742065786365656420746865207175616e7469747960448201527f20617661696c61626c6520696e207468652063686573740000000000000000006064820152608401610368565b604080516001808252818301909252906020808301908036833750506040805160018082528183019092529296509050602080830190803683375050604080516001808252818301909252929550905060208083019080368337505060408051600180825281830190925292945090506020808301908036833701905050905060016001600160a01b03881660009081526007602052604090205460ff166003811115610f9a57610f9a61317f565b14156110265760405163a9059cbb60e01b8152336004820152602481018690526001600160a01b0388169063a9059cbb90604401602060405180830381600087803b158015610fe857600080fd5b505af1158015610ffc573d6000803e3d6000fd5b505050506040513d601f19601f820116820180604052508101906110209190613631565b5061115c565b60026001600160a01b03881660009081526007602052604090205460ff1660038111156110555761105561317f565b14156110c257604051632142170760e11b81526001600160a01b038816906342842e0e9061108b90309033908b9060040161360d565b600060405180830381600087803b1580156110a557600080fd5b505af11580156110b9573d6000803e3d6000fd5b5050505061115c565b60036001600160a01b03881660009081526007602052604090205460ff1660038111156110f1576110f161317f565b141561115c57604051637921219560e11b81526001600160a01b0388169063f242432a9061112990309033908b908b90600401613653565b600060405180830381600087803b15801561114357600080fd5b505af1158015611157573d6000803e3d6000fd5b505050505b8684600081518110611170576111706135f7565b60200260200101906001600160a01b031690816001600160a01b03168152505085836000815181106111a4576111a46135f7565b60200260200101818152505084826000815181106111c4576111c46135f7565b6020908102919091018101919091526001600160a01b03881660009081526007909152604090205460ff1660038111156112005761120061317f565b81600081518110611213576112136135f7565b60ff90921660209283029190910190910152611233600980546001019055565b42600a55604051611245908390613740565b60405180910390208360405161125b9190613740565b6040518091039020856040516112719190613776565b604051908190038120338252907f825691be482e4341cf9f9329425b784703e03dab0cfea189fd713e89961a3f3f9060200160405180910390a46112b6848484612596565b6112c06001600855565b93509350935093565b6060806060806003805490506001600160401b038111156112ec576112ec612e95565b604051908082528060200260200182016040528015611315578160200160208202803683370190505b506003549094506001600160401b0381111561133357611333612e95565b60405190808252806020026020018201604052801561135c578160200160208202803683370190505b506003549093506001600160401b0381111561137a5761137a612e95565b6040519080825280602002602001820160405280156113a3578160200160208202803683370190505b506003549092506001600160401b038111156113c1576113c1612e95565b6040519080825280602002602001820160405280156113ea578160200160208202803683370190505b50600380546040805160208084028201810190925282815293945083018282801561143e57602002820191906000526020600020905b81546001600160a01b03168152600190910190602001808311611420575b5050505050935060005b6003548110156115cb5760056000868381518110611468576114686135f7565b60200260200101516001600160a01b03166001600160a01b031681526020019081526020016000206000828152602001908152602001600020548482815181106114b4576114b46135f7565b602002602001018181525050600660008683815181106114d6576114d66135f7565b60200260200101516001600160a01b03166001600160a01b031681526020019081526020016000206000858381518110611512576115126135f7565b602002602001015181526020019081526020016000205483828151811061153b5761153b6135f7565b6020026020010181815250506007600086838151811061155d5761155d6135f7565b6020908102919091018101516001600160a01b031682528101919091526040016000205460ff1660038111156115955761159561317f565b8282815181106115a7576115a76135f7565b60ff90921660209283029190910190910152806115c381613725565b915050611448565b5090919293565b6115da6124c6565b6115e460006129c2565b565b33600090815260016020819052604082205460ff161515146116845760405162461bcd60e51b815260206004820152604b60248201527f6f6e45524331313535426174636852656365697665643a20546f6b656e20697360448201527f206e6f74207768697465206c697374656420746f2062652073746f726564206960648201526a1b881d1a194818da195cdd60aa1b608482015260a401610368565b60005b8681101561184857336000908152600260205260408120908989848181106116b1576116b16135f7565b602090810292909201358352508101919091526040016000205460ff166117cc578787828181106116e4576116e46135f7565b33600081815260056020908152604080832060038054855290835281842095830297909701359094559454918152600490945290832090929091508a8a85818110611731576117316135f7565b60209081029290920135835250818101929092526040908101600090812093909355600380546001818101909255600080516020613a918339815191520180546001600160a01b0319163390811790915584526002909252822090918a8a8581811061179f5761179f6135f7565b90506020020135815260200190815260200160002060006101000a81548160ff0219169083151502179055505b8585828181106117de576117de6135f7565b336000908152600660209081526040822092029390930135929091508a8a8581811061180c5761180c6135f7565b905060200201358152602001908152602001600020600082825461183091906137d3565b9091555081905061184081613725565b915050611687565b5063f23a6e6160e01b9998505050505050505050565b6118666124c6565b60005b8151811015610a9b57818181518110611884576118846135f7565b60200260200101516001600160a01b03163b600014156118c3576118b38282815181106107d6576107d66135f7565b6040516020016107fc9190613826565b6118e58282815181106118d8576118d86135f7565b6020026020010151612a12565b1561199f576001806000848481518110611901576119016135f7565b60200260200101516001600160a01b03166001600160a01b0316815260200190815260200160002060006101000a81548160ff021916908315150217905550600160076000848481518110611958576119586135f7565b6020908102919091018101516001600160a01b03168252810191909152604001600020805460ff191660018360038111156119955761199561317f565b0217905550611aee565b6119c18282815181106119b4576119b46135f7565b6020026020010151612a99565b15611a345760018060008484815181106119dd576119dd6135f7565b60200260200101516001600160a01b03166001600160a01b0316815260200190815260200160002060006101000a81548160ff021916908315150217905550600260076000848481518110611958576119586135f7565b611a56828281518110611a4957611a496135f7565b6020026020010151612b1f565b15611ac9576001806000848481518110611a7257611a726135f7565b60200260200101516001600160a01b03166001600160a01b0316815260200190815260200160002060006101000a81548160ff021916908315150217905550600360076000848481518110611958576119586135f7565b611ade8282815181106107d6576107d66135f7565b6040516020016107fc9190613888565b80611af881613725565b915050611869565b33600090815260016020819052604082205460ff16151514611b995760405162461bcd60e51b815260206004820152604660248201527f6f6e4552433131353552656365697665643a20546f6b656e206973206e6f742060448201527f7768697465206c697374656420746f2062652073746f72656420696e207468656064820152650818da195cdd60d21b608482015260a401610368565b33600090815260026020908152604080832088845290915290205460ff16611c39573360008181526005602090815260408083206003805485529083528184208a90558054858552600484528285208b865284528285208190556001808201909255600080516020613a918339815191520180546001600160a01b03191686179055938352600282528083208984529091529020805460ff191690911790555b33600090815260066020908152604080832088845290915281208054869290611c639084906137d3565b9091555063f23a6e6160e01b98975050505050505050565b611c836124c6565b6001600160a01b038116611ce85760405162461bcd60e51b815260206004820152602660248201527f4f776e61626c653a206e6577206f776e657220697320746865207a65726f206160448201526564647265737360d01b6064820152608401610368565b611cf1816129c2565b50565b606080606080611d0261253c565b600054600160a01b900460ff1615611d2c5760405162461bcd60e51b8152600401610368906135c0565b85518751148015611d3e575084518751145b611dbc5760405162461bcd60e51b815260206004820152604360248201527f62617463684465706f7369743a206c656e677468206f66206974656d7320616e60448201527f642069647320616e6420616d6f756e747320617265206e6f742074686520736160648201526236b29760e91b608482015260a401610368565b86516001600160401b03811115611dd557611dd5612e95565b604051908082528060200260200182016040528015611dfe578160200160208202803683370190505b50935086516001600160401b03811115611e1a57611e1a612e95565b604051908082528060200260200182016040528015611e43578160200160208202803683370190505b50925086516001600160401b03811115611e5f57611e5f612e95565b604051908082528060200260200182016040528015611e88578160200160208202803683370190505b50915086516001600160401b03811115611ea457611ea4612e95565b604051908082528060200260200182016040528015611ecd578160200160208202803683370190505b50905060005b87518110156124b75760026000898381518110611ef257611ef26135f7565b60200260200101516001600160a01b03166001600160a01b031681526020019081526020016000206000888381518110611f2e57611f2e6135f7565b6020026020010151815260200190815260200160002060009054906101000a900460ff16611f678983815181106107d6576107d66135f7565b611f89898481518110611f7c57611f7c6135f7565b6020026020010151612b55565b604051602001611f9a929190613906565b60405160208183030381529060405290611fc75760405162461bcd60e51b815260040161036891906136fc565b50858181518110611fda57611fda6135f7565b6020026020010151600660008a8481518110611ff857611ff86135f7565b60200260200101516001600160a01b03166001600160a01b031681526020019081526020016000206000898481518110612034576120346135f7565b602002602001015181526020019081526020016000205410156120628983815181106107d6576107d66135f7565b612077898481518110611f7c57611f7c6135f7565b604051602001612088929190613969565b604051602081830303815290604052906120b55760405162461bcd60e51b815260040161036891906136fc565b506001600760008a84815181106120ce576120ce6135f7565b6020908102919091018101516001600160a01b031682528101919091526040016000205460ff1660038111156121065761210661317f565b14156121d85787818151811061211e5761211e6135f7565b60200260200101516001600160a01b031663a9059cbb33888481518110612147576121476135f7565b60200260200101516040518363ffffffff1660e01b81526004016121809291906001600160a01b03929092168252602082015260400190565b602060405180830381600087803b15801561219a57600080fd5b505af11580156121ae573d6000803e3d6000fd5b505050506040513d601f19601f820116820180604052508101906121d29190613631565b50612377565b6002600760008a84815181106121f0576121f06135f7565b6020908102919091018101516001600160a01b031682528101919091526040016000205460ff1660038111156122285761222861317f565b14156122c757878181518110612240576122406135f7565b60200260200101516001600160a01b03166342842e0e30338a858151811061226a5761226a6135f7565b60200260200101516040518463ffffffff1660e01b81526004016122909392919061360d565b600060405180830381600087803b1580156122aa57600080fd5b505af11580156122be573d6000803e3d6000fd5b50505050612377565b8781815181106122d9576122d96135f7565b60200260200101516001600160a01b031663f242432a30338a8581518110612303576123036135f7565b60200260200101518a868151811061231d5761231d6135f7565b60200260200101516040518563ffffffff1660e01b81526004016123449493929190613653565b600060405180830381600087803b15801561235e57600080fd5b505af1158015612372573d6000803e3d6000fd5b505050505b878181518110612389576123896135f7565b60200260200101518582815181106123a3576123a36135f7565b60200260200101906001600160a01b031690816001600160a01b0316815250508681815181106123d5576123d56135f7565b60200260200101518482815181106123ef576123ef6135f7565b60200260200101818152505085818151811061240d5761240d6135f7565b6020026020010151838281518110612427576124276135f7565b60200260200101818152505060076000898381518110612449576124496135f7565b6020908102919091018101516001600160a01b031682528101919091526040016000205460ff1660038111156124815761248161317f565b828281518110612493576124936135f7565b60ff90921660209283029190910190910152806124af81613725565b915050611ed3565b50611233600980546001019055565b6000546001600160a01b031633146115e45760405162461bcd60e51b815260206004820181905260248201527f4f776e61626c653a2063616c6c6572206973206e6f7420746865206f776e65726044820152606401610368565b60606125366001600160a01b0383166014612bf1565b92915050565b6002600854141561258f5760405162461bcd60e51b815260206004820152601f60248201527f5265656e7472616e637947756172643a207265656e7472616e742063616c6c006044820152606401610368565b6002600855565b60005b83518110156129bc578181815181106125b4576125b46135f7565b6020026020010151600660008684815181106125d2576125d26135f7565b60200260200101516001600160a01b03166001600160a01b03168152602001908152602001600020600085848151811061260e5761260e6135f7565b602002602001015181526020019081526020016000205461262f9190613a0a565b6129135760006004600086848151811061264b5761264b6135f7565b60200260200101516001600160a01b03166001600160a01b031681526020019081526020016000206000858481518110612687576126876135f7565b60200260200101518152602001908152602001600020549050600060016003805490506126b49190613a0a565b90506000600382815481106126cb576126cb6135f7565b60009182526020808320909101546001600160a01b031680835260058252604080842086855290925291205460038054929350909183919086908110612713576127136135f7565b600091825260208083209190910180546001600160a01b0319166001600160a01b0394851617905591841680825260048084526040808420868552855280842089905591835260058452818320888452909352812083905589518a908890811061277f5761277f6135f7565b60200260200101516001600160a01b03166001600160a01b0316815260200190815260200160002060008887815181106127bb576127bb6135f7565b6020026020010151815260200190815260200160002060009055600660008987815181106127eb576127eb6135f7565b60200260200101516001600160a01b03166001600160a01b031681526020019081526020016000206000888781518110612827576128276135f7565b602002602001015181526020019081526020016000206000905560026000898781518110612857576128576135f7565b60200260200101516001600160a01b03166001600160a01b031681526020019081526020016000206000888781518110612893576128936135f7565b60209081029190910181015182528181019290925260409081016000908120805460ff191690556001600160a01b03851681526005835281812086825290925281205560038054806128e7576128e7613a21565b600082815260209020810160001990810180546001600160a01b0319169055019055506129aa92505050565b818181518110612925576129256135f7565b602002602001015160066000868481518110612943576129436135f7565b60200260200101516001600160a01b03166001600160a01b03168152602001908152602001600020600085848151811061297f5761297f6135f7565b6020026020010151815260200190815260200160002060008282546129a49190613a0a565b90915550505b806129b481613725565b915050612599565b50505050565b600080546001600160a01b038381166001600160a01b0319831681178455604051919092169283917f8be0079c531659141344cd1fd0a4f28419497f9722a3daafe3b4186f6b6457e09190a35050565b6000816001600160a01b031663313ce5676040518163ffffffff1660e01b815260040160206040518083038186803b158015612a4d57600080fd5b505afa925050508015612a7d575060408051601f3d908101601f19168201909252612a7a91810190613a37565b60015b612a8957506000919050565b60ff16151592915050565b919050565b6040516301ffc9a760e01b81526380ac58cd60e01b60048201526000906001600160a01b038316906301ffc9a7906024015b60206040518083038186803b158015612ae357600080fd5b505afa925050508015612b13575060408051601f3d908101601f19168201909252612b1091810190613631565b60015b61253657506000919050565b6040516301ffc9a760e01b8152636cdb3d1360e11b60048201526000906001600160a01b038316906301ffc9a790602401612acb565b60606000612b6283612d93565b60010190506000816001600160401b03811115612b8157612b81612e95565b6040519080825280601f01601f191660200182016040528015612bab576020820181803683370190505b5090508181016020015b600019016f181899199a1a9b1b9c1cb0b131b232b360811b600a86061a8153600a8504945084612be457612be9565b612bb5565b509392505050565b60606000612c00836002613a5a565b612c0b9060026137d3565b6001600160401b03811115612c2257612c22612e95565b6040519080825280601f01601f191660200182016040528015612c4c576020820181803683370190505b509050600360fc1b81600081518110612c6757612c676135f7565b60200101906001600160f81b031916908160001a905350600f60fb1b81600181518110612c9657612c966135f7565b60200101906001600160f81b031916908160001a9053506000612cba846002613a5a565b612cc59060016137d3565b90505b6001811115612d3d576f181899199a1a9b1b9c1cb0b131b232b360811b85600f1660108110612cf957612cf96135f7565b1a60f81b828281518110612d0f57612d0f6135f7565b60200101906001600160f81b031916908160001a90535060049490941c93612d3681613a79565b9050612cc8565b508315612d8c5760405162461bcd60e51b815260206004820181905260248201527f537472696e67733a20686578206c656e67746820696e73756666696369656e746044820152606401610368565b9392505050565b60008072184f03e93ff9f4daa797ed6e38ed64bf6a1f0160401b8310612dd25772184f03e93ff9f4daa797ed6e38ed64bf6a1f0160401b830492506040015b6d04ee2d6d415b85acef81000000008310612dfe576d04ee2d6d415b85acef8100000000830492506020015b662386f26fc100008310612e1c57662386f26fc10000830492506010015b6305f5e1008310612e34576305f5e100830492506008015b6127108310612e4857612710830492506004015b60648310612e5a576064830492506002015b600a83106125365760010192915050565b600060208284031215612e7d57600080fd5b81356001600160e01b031981168114612d8c57600080fd5b634e487b7160e01b600052604160045260246000fd5b604051601f8201601f191681016001600160401b0381118282101715612ed357612ed3612e95565b604052919050565b60006001600160401b03821115612ef457612ef4612e95565b5060051b60200190565b80356001600160a01b0381168114612a9457600080fd5b600082601f830112612f2657600080fd5b81356020612f3b612f3683612edb565b612eab565b82815260059290921b84018101918181019086841115612f5a57600080fd5b8286015b84811015612f7c57612f6f81612efe565b8352918301918301612f5e565b509695505050505050565b600082601f830112612f9857600080fd5b81356020612fa8612f3683612edb565b82815260059290921b84018101918181019086841115612fc757600080fd5b8286015b84811015612f7c5780358352918301918301612fcb565b600080600060608486031215612ff757600080fd5b83356001600160401b038082111561300e57600080fd5b61301a87838801612f15565b9450602086013591508082111561303057600080fd5b61303c87838801612f87565b9350604086013591508082111561305257600080fd5b5061305f86828701612f87565b9150509250925092565b6000806000806080858703121561307f57600080fd5b61308885612efe565b93506020613097818701612efe565b93506040860135925060608601356001600160401b03808211156130ba57600080fd5b818801915088601f8301126130ce57600080fd5b8135818111156130e0576130e0612e95565b6130f2601f8201601f19168501612eab565b9150808252898482850101111561310857600080fd5b808484018584013760008482840101525080935050505092959194509250565b60006020828403121561313a57600080fd5b81356001600160401b0381111561315057600080fd5b61315c84828501612f15565b949350505050565b60006020828403121561317657600080fd5b612d8c82612efe565b634e487b7160e01b600052602160045260246000fd5b60208101600483106131b757634e487b7160e01b600052602160045260246000fd5b91905290565b600080600080608085870312156131d357600080fd5b6131dc85612efe565b93506131ea60208601612efe565b9250604085013591506131ff60608601612efe565b905092959194509250565b60005b8381101561322557818101518382015260200161320d565b838111156129bc5750506000910152565b6000815180845261324e81602086016020860161320a565b601f01601f19169290920160200192915050565b8551815284602082015260018060a01b038416604082015260a06060820152600061329060a0830185613236565b82810360808401526132a28185613236565b98975050505050505050565b6000806000606084860312156132c357600080fd5b6132cc84612efe565b95602085013595506040909401359392505050565b600081518084526020808501945080840160005b83811015613311578151875295820195908201906001016132f5565b509495945050505050565b600081518084526020808501945080840160005b8381101561331157815160ff1687529582019590820190600101613330565b6080808252855190820181905260009060209060a0840190828901845b828110156133915781516001600160a01b03168452928401929084019060010161336c565b505050838103828501526133a581886132e1565b91505082810360408401526133ba81866132e1565b905082810360608401526133ce818561331c565b979650505050505050565b600080604083850312156133ec57600080fd5b6133f583612efe565b946020939093013593505050565b60008083601f84011261341557600080fd5b5081356001600160401b0381111561342c57600080fd5b6020830191508360208260051b850101111561344757600080fd5b9250929050565b60008083601f84011261346057600080fd5b5081356001600160401b0381111561347757600080fd5b60208301915083602082850101111561344757600080fd5b60008060008060008060008060a0898b0312156134ab57600080fd5b6134b489612efe565b97506134c260208a01612efe565b965060408901356001600160401b03808211156134de57600080fd5b6134ea8c838d01613403565b909850965060608b013591508082111561350357600080fd5b61350f8c838d01613403565b909650945060808b013591508082111561352857600080fd5b506135358b828c0161344e565b999c989b5096995094979396929594505050565b60008060008060008060a0878903121561356257600080fd5b61356b87612efe565b955061357960208801612efe565b9450604087013593506060870135925060808701356001600160401b038111156135a257600080fd5b6135ae89828a0161344e565b979a9699509497509295939492505050565b6020808252601d908201527f546869732063686573742069732061637475616c6c79206c6f636b6564000000604082015260600190565b634e487b7160e01b600052603260045260246000fd5b6001600160a01b039384168152919092166020820152604081019190915260600190565b60006020828403121561364357600080fd5b81518015158114612d8c57600080fd5b6001600160a01b0394851681529290931660208301526040820152606081019190915260a06080820181905260009082015260c00190565b7f206973206e6f74207768697465206c697374656420746f20626520696e20746881526834b99031b432b9ba1760b91b602082015260290190565b6c021b432b9ba1d103a37b5b2b71609d1b8152600082516136ee81600d85016020870161320a565b61315c600d8285010161368b565b602081526000612d8c6020830184613236565b634e487b7160e01b600052601160045260246000fd5b60006000198214156137395761373961370f565b5060010190565b815160009082906020808601845b8381101561376a5781518552938201939082019060010161374e565b50929695505050505050565b815160009082906020808601845b8381101561376a5781516001600160a01b031685529382019390820190600101613784565b6040815260006137bc604083018561331c565b905060018060a01b03831660208301529392505050565b600082198211156137e6576137e661370f565b500190565b600181811c908216806137ff57607f821691505b6020821081141561382057634e487b7160e01b600052602260045260246000fd5b50919050565b72021b432b9ba2437b63232b91d103a37b5b2b71606d1b81526000825161385481601385016020870161320a565b7f206973206e6f74206120736d61727420636f6e747261637400000000000000006013939091019283015250602b01919050565b72021b432b9ba2437b63232b91d103a37b5b2b71606d1b8152600082516138b681601385016020870161320a565b7f206973206e6f7420737570706f727465642e204f6e6c792045524332302c20376013939091019283015250720c8c4b080c4c4d4d481a5cc8185b1b1bddd959606a1b6033820152604601919050565b6c021b432b9ba1d103a37b5b2b71609d1b81526000835161392e81600d85016020880161320a565b62034b2160ed1b600d91840191820152835161395181601084016020880161320a565b61395f60108284010161368b565b9695505050505050565b7f43686573743a20416d6f756e74206f6620746f6b656e200000000000000000008152600083516139a181601785016020880161320a565b62034b2160ed1b60179184019182015283516139c481601a84016020880161320a565b7f206578636565642074686520616d6f756e742070726573656e7420696e207468601a929091019182015266194818da195cdd60ca1b603a820152604101949350505050565b600082821015613a1c57613a1c61370f565b500390565b634e487b7160e01b600052603160045260246000fd5b600060208284031215613a4957600080fd5b815160ff81168114612d8c57600080fd5b6000816000190483118215151615613a7457613a7461370f565b500290565b600081613a8857613a8861370f565b50600019019056fec2575a0e9e593c00f959f8c92f12db2869c3395a3b0502d05e2516446f71f85ba2646970667358221220a49fd79fb10013cee9f4d44da71544f78b7b46344364911657e7c258a0520e9f64736f6c63430008090033",
  "linkReferences": {},
  "deployedLinkReferences": {}
}