{
  "_format": "hh-sol-artifact-1",
  "contractName": "ChestERC1155",
  "sourceName": "contracts/Tokens.sol",
  "abi": [
    {
      "inputs": [
        {
          "internalType": "string",
          "name": "uri",
          "type": "string"
        }
      ],
      "stateMutability": "nonpayable",
      "type": "constructor"
    },
    {
      "anonymous": false,
      "inputs": [
        {
          "indexed": true,
          "internalType": "address",
          "name": "account",
          "type": "address"
        },
        {
          "indexed": true,
          "internalType": "address",
          "name": "operator",
          "type": "address"
        },
        {
          "indexed": false,
          "internalType": "bool",
          "name": "approved",
          "type": "bool"
        }
      ],
      "name": "ApprovalForAll",
      "type": "event"
    },
    {
      "anonymous": false,
      "inputs": [
        {
          "indexed": true,
          "internalType": "address",
          "name": "previousOwner",
          "type": "address"
        },
        {
          "indexed": true,
          "internalType": "address",
          "name": "newOwner",
          "type": "address"
        }
      ],
      "name": "OwnershipTransferred",
      "type": "event"
    },
    {
      "anonymous": false,
      "inputs": [
        {
          "indexed": false,
          "internalType": "address",
          "name": "account",
          "type": "address"
        }
      ],
      "name": "Paused",
      "type": "event"
    },
    {
      "anonymous": false,
      "inputs": [
        {
          "indexed": true,
          "internalType": "address",
          "name": "operator",
          "type": "address"
        },
        {
          "indexed": true,
          "internalType": "address",
          "name": "from",
          "type": "address"
        },
        {
          "indexed": true,
          "internalType": "address",
          "name": "to",
          "type": "address"
        },
        {
          "indexed": false,
          "internalType": "uint256[]",
          "name": "ids",
          "type": "uint256[]"
        },
        {
          "indexed": false,
          "internalType": "uint256[]",
          "name": "values",
          "type": "uint256[]"
        }
      ],
      "name": "TransferBatch",
      "type": "event"
    },
    {
      "anonymous": false,
      "inputs": [
        {
          "indexed": true,
          "internalType": "address",
          "name": "operator",
          "type": "address"
        },
        {
          "indexed": true,
          "internalType": "address",
          "name": "from",
          "type": "address"
        },
        {
          "indexed": true,
          "internalType": "address",
          "name": "to",
          "type": "address"
        },
        {
          "indexed": false,
          "internalType": "uint256",
          "name": "id",
          "type": "uint256"
        },
        {
          "indexed": false,
          "internalType": "uint256",
          "name": "value",
          "type": "uint256"
        }
      ],
      "name": "TransferSingle",
      "type": "event"
    },
    {
      "anonymous": false,
      "inputs": [
        {
          "indexed": false,
          "internalType": "string",
          "name": "value",
          "type": "string"
        },
        {
          "indexed": true,
          "internalType": "uint256",
          "name": "id",
          "type": "uint256"
        }
      ],
      "name": "URI",
      "type": "event"
    },
    {
      "anonymous": false,
      "inputs": [
        {
          "indexed": false,
          "internalType": "address",
          "name": "account",
          "type": "address"
        }
      ],
      "name": "Unpaused",
      "type": "event"
    },
    {
      "inputs": [
        {
          "internalType": "address",
          "name": "account",
          "type": "address"
        },
        {
          "internalType": "uint256",
          "name": "id",
          "type": "uint256"
        }
      ],
      "name": "balanceOf",
      "outputs": [
        {
          "internalType": "uint256",
          "name": "",
          "type": "uint256"
        }
      ],
      "stateMutability": "view",
      "type": "function"
    },
    {
      "inputs": [
        {
          "internalType": "address[]",
          "name": "accounts",
          "type": "address[]"
        },
        {
          "internalType": "uint256[]",
          "name": "ids",
          "type": "uint256[]"
        }
      ],
      "name": "balanceOfBatch",
      "outputs": [
        {
          "internalType": "uint256[]",
          "name": "",
          "type": "uint256[]"
        }
      ],
      "stateMutability": "view",
      "type": "function"
    },
    {
      "inputs": [
        {
          "internalType": "address",
          "name": "account",
          "type": "address"
        },
        {
          "internalType": "uint256",
          "name": "id",
          "type": "uint256"
        },
        {
          "internalType": "uint256",
          "name": "value",
          "type": "uint256"
        }
      ],
      "name": "burn",
      "outputs": [],
      "stateMutability": "nonpayable",
      "type": "function"
    },
    {
      "inputs": [
        {
          "internalType": "address",
          "name": "account",
          "type": "address"
        },
        {
          "internalType": "uint256[]",
          "name": "ids",
          "type": "uint256[]"
        },
        {
          "internalType": "uint256[]",
          "name": "values",
          "type": "uint256[]"
        }
      ],
      "name": "burnBatch",
      "outputs": [],
      "stateMutability": "nonpayable",
      "type": "function"
    },
    {
      "inputs": [
        {
          "internalType": "uint256",
          "name": "id",
          "type": "uint256"
        }
      ],
      "name": "exists",
      "outputs": [
        {
          "internalType": "bool",
          "name": "",
          "type": "bool"
        }
      ],
      "stateMutability": "view",
      "type": "function"
    },
    {
      "inputs": [
        {
          "internalType": "address",
          "name": "account",
          "type": "address"
        },
        {
          "internalType": "address",
          "name": "operator",
          "type": "address"
        }
      ],
      "name": "isApprovedForAll",
      "outputs": [
        {
          "internalType": "bool",
          "name": "",
          "type": "bool"
        }
      ],
      "stateMutability": "view",
      "type": "function"
    },
    {
      "inputs": [
        {
          "internalType": "address",
          "name": "account",
          "type": "address"
        },
        {
          "internalType": "uint256",
          "name": "id",
          "type": "uint256"
        },
        {
          "internalType": "uint256",
          "name": "amount",
          "type": "uint256"
        },
        {
          "internalType": "bytes",
          "name": "data",
          "type": "bytes"
        }
      ],
      "name": "mint",
      "outputs": [],
      "stateMutability": "nonpayable",
      "type": "function"
    },
    {
      "inputs": [
        {
          "internalType": "address",
          "name": "to",
          "type": "address"
        },
        {
          "internalType": "uint256[]",
          "name": "ids",
          "type": "uint256[]"
        },
        {
          "internalType": "uint256[]",
          "name": "amounts",
          "type": "uint256[]"
        },
        {
          "internalType": "bytes",
          "name": "data",
          "type": "bytes"
        }
      ],
      "name": "mintBatch",
      "outputs": [],
      "stateMutability": "nonpayable",
      "type": "function"
    },
    {
      "inputs": [],
      "name": "owner",
      "outputs": [
        {
          "internalType": "address",
          "name": "",
          "type": "address"
        }
      ],
      "stateMutability": "view",
      "type": "function"
    },
    {
      "inputs": [],
      "name": "pause",
      "outputs": [],
      "stateMutability": "nonpayable",
      "type": "function"
    },
    {
      "inputs": [],
      "name": "paused",
      "outputs": [
        {
          "internalType": "bool",
          "name": "",
          "type": "bool"
        }
      ],
      "stateMutability": "view",
      "type": "function"
    },
    {
      "inputs": [],
      "name": "renounceOwnership",
      "outputs": [],
      "stateMutability": "nonpayable",
      "type": "function"
    },
    {
      "inputs": [
        {
          "internalType": "address",
          "name": "from",
          "type": "address"
        },
        {
          "internalType": "address",
          "name": "to",
          "type": "address"
        },
        {
          "internalType": "uint256[]",
          "name": "ids",
          "type": "uint256[]"
        },
        {
          "internalType": "uint256[]",
          "name": "amounts",
          "type": "uint256[]"
        },
        {
          "internalType": "bytes",
          "name": "data",
          "type": "bytes"
        }
      ],
      "name": "safeBatchTransferFrom",
      "outputs": [],
      "stateMutability": "nonpayable",
      "type": "function"
    },
    {
      "inputs": [
        {
          "internalType": "address",
          "name": "from",
          "type": "address"
        },
        {
          "internalType": "address",
          "name": "to",
          "type": "address"
        },
        {
          "internalType": "uint256",
          "name": "id",
          "type": "uint256"
        },
        {
          "internalType": "uint256",
          "name": "amount",
          "type": "uint256"
        },
        {
          "internalType": "bytes",
          "name": "data",
          "type": "bytes"
        }
      ],
      "name": "safeTransferFrom",
      "outputs": [],
      "stateMutability": "nonpayable",
      "type": "function"
    },
    {
      "inputs": [
        {
          "internalType": "address",
          "name": "operator",
          "type": "address"
        },
        {
          "internalType": "bool",
          "name": "approved",
          "type": "bool"
        }
      ],
      "name": "setApprovalForAll",
      "outputs": [],
      "stateMutability": "nonpayable",
      "type": "function"
    },
    {
      "inputs": [
        {
          "internalType": "string",
          "name": "newuri",
          "type": "string"
        }
      ],
      "name": "setURI",
      "outputs": [],
      "stateMutability": "nonpayable",
      "type": "function"
    },
    {
      "inputs": [
        {
          "internalType": "bytes4",
          "name": "interfaceId",
          "type": "bytes4"
        }
      ],
      "name": "supportsInterface",
      "outputs": [
        {
          "internalType": "bool",
          "name": "",
          "type": "bool"
        }
      ],
      "stateMutability": "view",
      "type": "function"
    },
    {
      "inputs": [
        {
          "internalType": "uint256",
          "name": "id",
          "type": "uint256"
        }
      ],
      "name": "totalSupply",
      "outputs": [
        {
          "internalType": "uint256",
          "name": "",
          "type": "uint256"
        }
      ],
      "stateMutability": "view",
      "type": "function"
    },
    {
      "inputs": [
        {
          "internalType": "address",
          "name": "newOwner",
          "type": "address"
        }
      ],
      "name": "transferOwnership",
      "outputs": [],
      "stateMutability": "nonpayable",
      "type": "function"
    },
    {
      "inputs": [],
      "name": "unpause",
      "outputs": [],
      "stateMutability": "nonpayable",
      "type": "function"
    },
    {
      "inputs": [
        {
          "internalType": "uint256",
          "name": "",
          "type": "uint256"
        }
      ],
      "name": "uri",
      "outputs": [
        {
          "internalType": "string",
          "name": "",
          "type": "string"
        }
      ],
      "stateMutability": "view",
      "type": "function"
    }
  ],
  "bytecode": "0x60806040523480156200001157600080fd5b506040516200257738038062002577833981016040819052620000349162000187565b80620000408162000060565b506200004c3362000079565b506003805460ff60a01b19169055620002a0565b805162000075906002906020840190620000cb565b5050565b600380546001600160a01b038381166001600160a01b0319831681179093556040519116919082907f8be0079c531659141344cd1fd0a4f28419497f9722a3daafe3b4186f6b6457e090600090a35050565b828054620000d99062000263565b90600052602060002090601f016020900481019282620000fd576000855562000148565b82601f106200011857805160ff191683800117855562000148565b8280016001018555821562000148579182015b82811115620001485782518255916020019190600101906200012b565b50620001569291506200015a565b5090565b5b808211156200015657600081556001016200015b565b634e487b7160e01b600052604160045260246000fd5b600060208083850312156200019b57600080fd5b82516001600160401b0380821115620001b357600080fd5b818501915085601f830112620001c857600080fd5b815181811115620001dd57620001dd62000171565b604051601f8201601f19908116603f0116810190838211818310171562000208576200020862000171565b8160405282815288868487010111156200022157600080fd5b600093505b8284101562000245578484018601518185018701529285019262000226565b82841115620002575760008684830101525b98975050505050505050565b600181811c908216806200027857607f821691505b602082108114156200029a57634e487b7160e01b600052602260045260246000fd5b50919050565b6122c780620002b06000396000f3fe608060405234801561001057600080fd5b50600436106101365760003560e01c80636b20c454116100b8578063a22cb4651161007c578063a22cb4651461028c578063bd85b0391461029f578063e985e9c5146102bf578063f242432a146102fb578063f2fde38b1461030e578063f5298aca1461032157600080fd5b80636b20c4541461023b578063715018a61461024e578063731133e9146102565780638456cb59146102695780638da5cb5b1461027157600080fd5b80632eb2c2d6116100ff5780632eb2c2d6146101cc5780633f4ba83a146101df5780634e1273f4146101e75780634f558e79146102075780635c975abb1461022957600080fd5b8062fdd58e1461013b57806301ffc9a71461016157806302fe5305146101845780630e89341c146101995780631f7fdffa146101b9575b600080fd5b61014e610149366004611763565b610334565b6040519081526020015b60405180910390f35b61017461016f3660046117a3565b6103ca565b6040519015158152602001610158565b610197610192366004611868565b61041c565b005b6101ac6101a73660046118b9565b610430565b604051610158919061191f565b6101976101c73660046119e7565b6104c4565b6101976101da366004611a80565b6104de565b61019761052a565b6101fa6101f5366004611b2a565b61053c565b6040516101589190611c30565b6101746102153660046118b9565b600090815260046020526040902054151590565b600354600160a01b900460ff16610174565b610197610249366004611c43565b610666565b6101976106ae565b610197610264366004611cb7565b6106c0565b6101976106d4565b6003546040516001600160a01b039091168152602001610158565b61019761029a366004611d0c565b6106e4565b61014e6102ad3660046118b9565b60009081526004602052604090205490565b6101746102cd366004611d48565b6001600160a01b03918216600090815260016020908152604080832093909416825291909152205460ff1690565b610197610309366004611d7b565b6106f3565b61019761031c366004611de0565b610738565b61019761032f366004611dfb565b6107ae565b60006001600160a01b0383166103a45760405162461bcd60e51b815260206004820152602a60248201527f455243313135353a2061646472657373207a65726f206973206e6f742061207660448201526930b634b21037bbb732b960b11b60648201526084015b60405180910390fd5b506000908152602081815260408083206001600160a01b03949094168352929052205490565b60006001600160e01b03198216636cdb3d1360e11b14806103fb57506001600160e01b031982166303a24d0760e21b145b8061041657506301ffc9a760e01b6001600160e01b03198316145b92915050565b6104246107f1565b61042d8161084b565b50565b60606002805461043f90611e2e565b80601f016020809104026020016040519081016040528092919081815260200182805461046b90611e2e565b80156104b85780601f1061048d576101008083540402835291602001916104b8565b820191906000526020600020905b81548152906001019060200180831161049b57829003601f168201915b50505050509050919050565b6104cc6107f1565b6104d88484848461085e565b50505050565b6001600160a01b0385163314806104fa57506104fa85336102cd565b6105165760405162461bcd60e51b815260040161039b90611e69565b61052385858585856109b8565b5050505050565b6105326107f1565b61053a610b62565b565b606081518351146105a15760405162461bcd60e51b815260206004820152602960248201527f455243313135353a206163636f756e747320616e6420696473206c656e677468604482015268040dad2e6dac2e8c6d60bb1b606482015260840161039b565b6000835167ffffffffffffffff8111156105bd576105bd6117c7565b6040519080825280602002602001820160405280156105e6578160200160208202803683370190505b50905060005b845181101561065e5761063185828151811061060a5761060a611eb7565b602002602001015185838151811061062457610624611eb7565b6020026020010151610334565b82828151811061064357610643611eb7565b602090810291909101015261065781611ee3565b90506105ec565b509392505050565b6001600160a01b038316331480610682575061068283336102cd565b61069e5760405162461bcd60e51b815260040161039b90611e69565b6106a9838383610bb7565b505050565b6106b66107f1565b61053a6000610d53565b6106c86107f1565b6104d884848484610da5565b6106dc6107f1565b61053a610e8e565b6106ef338383610ed1565b5050565b6001600160a01b03851633148061070f575061070f85336102cd565b61072b5760405162461bcd60e51b815260040161039b90611e69565b6105238585858585610fb2565b6107406107f1565b6001600160a01b0381166107a55760405162461bcd60e51b815260206004820152602660248201527f4f776e61626c653a206e6577206f776e657220697320746865207a65726f206160448201526564647265737360d01b606482015260840161039b565b61042d81610d53565b6001600160a01b0383163314806107ca57506107ca83336102cd565b6107e65760405162461bcd60e51b815260040161039b90611e69565b6106a98383836110ea565b6003546001600160a01b0316331461053a5760405162461bcd60e51b815260206004820181905260248201527f4f776e61626c653a2063616c6c6572206973206e6f7420746865206f776e6572604482015260640161039b565b80516106ef9060029060208401906116ae565b6001600160a01b0384166108845760405162461bcd60e51b815260040161039b90611efe565b81518351146108a55760405162461bcd60e51b815260040161039b90611f3f565b336108b581600087878787611202565b60005b8451811015610950578381815181106108d3576108d3611eb7565b60200260200101516000808784815181106108f0576108f0611eb7565b602002602001015181526020019081526020016000206000886001600160a01b03166001600160a01b0316815260200190815260200160002060008282546109389190611f87565b9091555081905061094881611ee3565b9150506108b8565b50846001600160a01b031660006001600160a01b0316826001600160a01b03167f4a39dc06d4c0dbc64b70af90fd698a233a518aa5d07e595d983b8c0526c8f7fb87876040516109a1929190611f9f565b60405180910390a461052381600087878787611218565b81518351146109d95760405162461bcd60e51b815260040161039b90611f3f565b6001600160a01b0384166109ff5760405162461bcd60e51b815260040161039b90611fcd565b33610a0e818787878787611202565b60005b8451811015610af4576000858281518110610a2e57610a2e611eb7565b602002602001015190506000858381518110610a4c57610a4c611eb7565b602090810291909101810151600084815280835260408082206001600160a01b038e168352909352919091205490915081811015610a9c5760405162461bcd60e51b815260040161039b90612012565b6000838152602081815260408083206001600160a01b038e8116855292528083208585039055908b16825281208054849290610ad9908490611f87565b9250508190555050505080610aed90611ee3565b9050610a11565b50846001600160a01b0316866001600160a01b0316826001600160a01b03167f4a39dc06d4c0dbc64b70af90fd698a233a518aa5d07e595d983b8c0526c8f7fb8787604051610b44929190611f9f565b60405180910390a4610b5a818787878787611218565b505050505050565b610b6a611383565b6003805460ff60a01b191690557f5db9ee0a495bf2e6ff9c91a7834c1ba4fdd244a5e8aa4e537bd38aeae4b073aa335b6040516001600160a01b03909116815260200160405180910390a1565b6001600160a01b038316610bdd5760405162461bcd60e51b815260040161039b9061205c565b8051825114610bfe5760405162461bcd60e51b815260040161039b90611f3f565b6000339050610c2181856000868660405180602001604052806000815250611202565b60005b8351811015610ce6576000848281518110610c4157610c41611eb7565b602002602001015190506000848381518110610c5f57610c5f611eb7565b602090810291909101810151600084815280835260408082206001600160a01b038c168352909352919091205490915081811015610caf5760405162461bcd60e51b815260040161039b9061209f565b6000928352602083815260408085206001600160a01b038b1686529091529092209103905580610cde81611ee3565b915050610c24565b5060006001600160a01b0316846001600160a01b0316826001600160a01b03167f4a39dc06d4c0dbc64b70af90fd698a233a518aa5d07e595d983b8c0526c8f7fb8686604051610d37929190611f9f565b60405180910390a46040805160208101909152600090526104d8565b600380546001600160a01b038381166001600160a01b0319831681179093556040519116919082907f8be0079c531659141344cd1fd0a4f28419497f9722a3daafe3b4186f6b6457e090600090a35050565b6001600160a01b038416610dcb5760405162461bcd60e51b815260040161039b90611efe565b336000610dd7856113d3565b90506000610de4856113d3565b9050610df583600089858589611202565b6000868152602081815260408083206001600160a01b038b16845290915281208054879290610e25908490611f87565b909155505060408051878152602081018790526001600160a01b03808a1692600092918716917fc3d58168c5ae7397731d063d5bbf3d657854427343f4c083240f7aacaa2d0f62910160405180910390a4610e858360008989898961141e565b50505050505050565b610e966114e8565b6003805460ff60a01b1916600160a01b1790557f62e78cea01bee320cd4e420270b5ea74000d11b0c9f74754ebdbfc544b05a258610b9a3390565b816001600160a01b0316836001600160a01b03161415610f455760405162461bcd60e51b815260206004820152602960248201527f455243313135353a2073657474696e6720617070726f76616c20737461747573604482015268103337b91039b2b63360b91b606482015260840161039b565b6001600160a01b03838116600081815260016020908152604080832094871680845294825291829020805460ff191686151590811790915591519182527f17307eab39ab6107e8899845ad3d59bd9653f200f220920489ca2b5937696c31910160405180910390a3505050565b6001600160a01b038416610fd85760405162461bcd60e51b815260040161039b90611fcd565b336000610fe4856113d3565b90506000610ff1856113d3565b9050611001838989858589611202565b6000868152602081815260408083206001600160a01b038c168452909152902054858110156110425760405162461bcd60e51b815260040161039b90612012565b6000878152602081815260408083206001600160a01b038d8116855292528083208985039055908a1682528120805488929061107f908490611f87565b909155505060408051888152602081018890526001600160a01b03808b16928c821692918816917fc3d58168c5ae7397731d063d5bbf3d657854427343f4c083240f7aacaa2d0f62910160405180910390a46110df848a8a8a8a8a61141e565b505050505050505050565b6001600160a01b0383166111105760405162461bcd60e51b815260040161039b9061205c565b33600061111c846113d3565b90506000611129846113d3565b905061114983876000858560405180602001604052806000815250611202565b6000858152602081815260408083206001600160a01b038a1684529091529020548481101561118a5760405162461bcd60e51b815260040161039b9061209f565b6000868152602081815260408083206001600160a01b038b81168086529184528285208a8703905582518b81529384018a90529092908816917fc3d58168c5ae7397731d063d5bbf3d657854427343f4c083240f7aacaa2d0f62910160405180910390a4604080516020810190915260009052610e85565b61120a6114e8565b610b5a868686868686611535565b6001600160a01b0384163b15610b5a5760405163bc197c8160e01b81526001600160a01b0385169063bc197c819061125c90899089908890889088906004016120e3565b602060405180830381600087803b15801561127657600080fd5b505af19250505080156112a6575060408051601f3d908101601f191682019092526112a391810190612141565b60015b611353576112b261215e565b806308c379a014156112ec57506112c761217a565b806112d257506112ee565b8060405162461bcd60e51b815260040161039b919061191f565b505b60405162461bcd60e51b815260206004820152603460248201527f455243313135353a207472616e7366657220746f206e6f6e2d455243313135356044820152732932b1b2b4bb32b91034b6b83632b6b2b73a32b960611b606482015260840161039b565b6001600160e01b0319811663bc197c8160e01b14610e855760405162461bcd60e51b815260040161039b90612204565b600354600160a01b900460ff1661053a5760405162461bcd60e51b815260206004820152601460248201527314185d5cd8589b194e881b9bdd081c185d5cd95960621b604482015260640161039b565b6040805160018082528183019092526060916000919060208083019080368337019050509050828160008151811061140d5761140d611eb7565b602090810291909101015292915050565b6001600160a01b0384163b15610b5a5760405163f23a6e6160e01b81526001600160a01b0385169063f23a6e6190611462908990899088908890889060040161224c565b602060405180830381600087803b15801561147c57600080fd5b505af19250505080156114ac575060408051601f3d908101601f191682019092526114a991810190612141565b60015b6114b8576112b261215e565b6001600160e01b0319811663f23a6e6160e01b14610e855760405162461bcd60e51b815260040161039b90612204565b600354600160a01b900460ff161561053a5760405162461bcd60e51b815260206004820152601060248201526f14185d5cd8589b194e881c185d5cd95960821b604482015260640161039b565b6001600160a01b0385166115bc5760005b83518110156115ba5782818151811061156157611561611eb7565b60200260200101516004600086848151811061157f5761157f611eb7565b6020026020010151815260200190815260200160002060008282546115a49190611f87565b909155506115b3905081611ee3565b9050611546565b505b6001600160a01b038416610b5a5760005b8351811015610e855760008482815181106115ea576115ea611eb7565b60200260200101519050600084838151811061160857611608611eb7565b602002602001015190506000600460008481526020019081526020016000205490508181101561168b5760405162461bcd60e51b815260206004820152602860248201527f455243313135353a206275726e20616d6f756e74206578636565647320746f74604482015267616c537570706c7960c01b606482015260840161039b565b600092835260046020526040909220910390556116a781611ee3565b90506115cd565b8280546116ba90611e2e565b90600052602060002090601f0160209004810192826116dc5760008555611722565b82601f106116f557805160ff1916838001178555611722565b82800160010185558215611722579182015b82811115611722578251825591602001919060010190611707565b5061172e929150611732565b5090565b5b8082111561172e5760008155600101611733565b80356001600160a01b038116811461175e57600080fd5b919050565b6000806040838503121561177657600080fd5b61177f83611747565b946020939093013593505050565b6001600160e01b03198116811461042d57600080fd5b6000602082840312156117b557600080fd5b81356117c08161178d565b9392505050565b634e487b7160e01b600052604160045260246000fd5b601f8201601f1916810167ffffffffffffffff81118282101715611803576118036117c7565b6040525050565b600067ffffffffffffffff831115611824576118246117c7565b60405161183b601f8501601f1916602001826117dd565b80915083815284848401111561185057600080fd5b83836020830137600060208583010152509392505050565b60006020828403121561187a57600080fd5b813567ffffffffffffffff81111561189157600080fd5b8201601f810184136118a257600080fd5b6118b18482356020840161180a565b949350505050565b6000602082840312156118cb57600080fd5b5035919050565b6000815180845260005b818110156118f8576020818501810151868301820152016118dc565b8181111561190a576000602083870101525b50601f01601f19169290920160200192915050565b6020815260006117c060208301846118d2565b600067ffffffffffffffff82111561194c5761194c6117c7565b5060051b60200190565b600082601f83011261196757600080fd5b8135602061197482611932565b60405161198182826117dd565b83815260059390931b85018201928281019150868411156119a157600080fd5b8286015b848110156119bc57803583529183019183016119a5565b509695505050505050565b600082601f8301126119d857600080fd5b6117c08383356020850161180a565b600080600080608085870312156119fd57600080fd5b611a0685611747565b9350602085013567ffffffffffffffff80821115611a2357600080fd5b611a2f88838901611956565b94506040870135915080821115611a4557600080fd5b611a5188838901611956565b93506060870135915080821115611a6757600080fd5b50611a74878288016119c7565b91505092959194509250565b600080600080600060a08688031215611a9857600080fd5b611aa186611747565b9450611aaf60208701611747565b9350604086013567ffffffffffffffff80821115611acc57600080fd5b611ad889838a01611956565b94506060880135915080821115611aee57600080fd5b611afa89838a01611956565b93506080880135915080821115611b1057600080fd5b50611b1d888289016119c7565b9150509295509295909350565b60008060408385031215611b3d57600080fd5b823567ffffffffffffffff80821115611b5557600080fd5b818501915085601f830112611b6957600080fd5b81356020611b7682611932565b604051611b8382826117dd565b83815260059390931b8501820192828101915089841115611ba357600080fd5b948201945b83861015611bc857611bb986611747565b82529482019490820190611ba8565b96505086013592505080821115611bde57600080fd5b50611beb85828601611956565b9150509250929050565b600081518084526020808501945080840160005b83811015611c2557815187529582019590820190600101611c09565b509495945050505050565b6020815260006117c06020830184611bf5565b600080600060608486031215611c5857600080fd5b611c6184611747565b9250602084013567ffffffffffffffff80821115611c7e57600080fd5b611c8a87838801611956565b93506040860135915080821115611ca057600080fd5b50611cad86828701611956565b9150509250925092565b60008060008060808587031215611ccd57600080fd5b611cd685611747565b93506020850135925060408501359150606085013567ffffffffffffffff811115611d0057600080fd5b611a74878288016119c7565b60008060408385031215611d1f57600080fd5b611d2883611747565b915060208301358015158114611d3d57600080fd5b809150509250929050565b60008060408385031215611d5b57600080fd5b611d6483611747565b9150611d7260208401611747565b90509250929050565b600080600080600060a08688031215611d9357600080fd5b611d9c86611747565b9450611daa60208701611747565b93506040860135925060608601359150608086013567ffffffffffffffff811115611dd457600080fd5b611b1d888289016119c7565b600060208284031215611df257600080fd5b6117c082611747565b600080600060608486031215611e1057600080fd5b611e1984611747565b95602085013595506040909401359392505050565b600181811c90821680611e4257607f821691505b60208210811415611e6357634e487b7160e01b600052602260045260246000fd5b50919050565b6020808252602e908201527f455243313135353a2063616c6c6572206973206e6f7420746f6b656e206f776e60408201526d195c881bdc88185c1c1c9bdd995960921b606082015260800190565b634e487b7160e01b600052603260045260246000fd5b634e487b7160e01b600052601160045260246000fd5b6000600019821415611ef757611ef7611ecd565b5060010190565b60208082526021908201527f455243313135353a206d696e7420746f20746865207a65726f206164647265736040820152607360f81b606082015260800190565b60208082526028908201527f455243313135353a2069647320616e6420616d6f756e7473206c656e677468206040820152670dad2e6dac2e8c6d60c31b606082015260800190565b60008219821115611f9a57611f9a611ecd565b500190565b604081526000611fb26040830185611bf5565b8281036020840152611fc48185611bf5565b95945050505050565b60208082526025908201527f455243313135353a207472616e7366657220746f20746865207a65726f206164604082015264647265737360d81b606082015260800190565b6020808252602a908201527f455243313135353a20696e73756666696369656e742062616c616e636520666f60408201526939103a3930b739b332b960b11b606082015260800190565b60208082526023908201527f455243313135353a206275726e2066726f6d20746865207a65726f206164647260408201526265737360e81b606082015260800190565b60208082526024908201527f455243313135353a206275726e20616d6f756e7420657863656564732062616c604082015263616e636560e01b606082015260800190565b6001600160a01b0386811682528516602082015260a06040820181905260009061210f90830186611bf5565b82810360608401526121218186611bf5565b9050828103608084015261213581856118d2565b98975050505050505050565b60006020828403121561215357600080fd5b81516117c08161178d565b600060033d11156121775760046000803e5060005160e01c5b90565b600060443d10156121885790565b6040516003193d81016004833e81513d67ffffffffffffffff81602484011181841117156121b857505050505090565b82850191508151818111156121d05750505050505090565b843d87010160208285010111156121ea5750505050505090565b6121f9602082860101876117dd565b509095945050505050565b60208082526028908201527f455243313135353a204552433131353552656365697665722072656a656374656040820152676420746f6b656e7360c01b606082015260800190565b6001600160a01b03868116825285166020820152604081018490526060810183905260a060808201819052600090612286908301846118d2565b97965050505050505056fea2646970667358221220cf75290aeaf3a3fdf0838a9634fa3cee9bc7ef8dce2f13b4c685a3068771808364736f6c63430008090033",
  "linkReferences": {},
  "deployedLinkReferences": {}
}