{
  "_format": "hh-sol-artifact-1",
  "contractName": "ChestERC721",
  "sourceName": "contracts/Tokens.sol",
  "abi": [
    {
      "inputs": [
        {
          "internalType": "string",
          "name": "name",
          "type": "string"
        },
        {
          "internalType": "string",
          "name": "ticker",
          "type": "string"
        }
      ],
      "stateMutability": "nonpayable",
      "type": "constructor"
    },
    {
      "anonymous": false,
      "inputs": [
        {
          "indexed": true,
          "internalType": "address",
          "name": "owner",
          "type": "address"
        },
        {
          "indexed": true,
          "internalType": "address",
          "name": "approved",
          "type": "address"
        },
        {
          "indexed": true,
          "internalType": "uint256",
          "name": "tokenId",
          "type": "uint256"
        }
      ],
      "name": "Approval",
      "type": "event"
    },
    {
      "anonymous": false,
      "inputs": [
        {
          "indexed": true,
          "internalType": "address",
          "name": "owner",
          "type": "address"
        },
        {
          "indexed": true,
          "internalType": "address",
          "name": "operator",
          "type": "address"
        },
        {
          "indexed": false,
          "internalType": "bool",
          "name": "approved",
          "type": "bool"
        }
      ],
      "name": "ApprovalForAll",
      "type": "event"
    },
    {
      "anonymous": false,
      "inputs": [
        {
          "indexed": true,
          "internalType": "address",
          "name": "previousOwner",
          "type": "address"
        },
        {
          "indexed": true,
          "internalType": "address",
          "name": "newOwner",
          "type": "address"
        }
      ],
      "name": "OwnershipTransferred",
      "type": "event"
    },
    {
      "anonymous": false,
      "inputs": [
        {
          "indexed": false,
          "internalType": "address",
          "name": "account",
          "type": "address"
        }
      ],
      "name": "Paused",
      "type": "event"
    },
    {
      "anonymous": false,
      "inputs": [
        {
          "indexed": true,
          "internalType": "address",
          "name": "from",
          "type": "address"
        },
        {
          "indexed": true,
          "internalType": "address",
          "name": "to",
          "type": "address"
        },
        {
          "indexed": true,
          "internalType": "uint256",
          "name": "tokenId",
          "type": "uint256"
        }
      ],
      "name": "Transfer",
      "type": "event"
    },
    {
      "anonymous": false,
      "inputs": [
        {
          "indexed": false,
          "internalType": "address",
          "name": "account",
          "type": "address"
        }
      ],
      "name": "Unpaused",
      "type": "event"
    },
    {
      "inputs": [
        {
          "internalType": "address",
          "name": "to",
          "type": "address"
        },
        {
          "internalType": "uint256",
          "name": "tokenId",
          "type": "uint256"
        }
      ],
      "name": "approve",
      "outputs": [],
      "stateMutability": "nonpayable",
      "type": "function"
    },
    {
      "inputs": [
        {
          "internalType": "address",
          "name": "owner",
          "type": "address"
        }
      ],
      "name": "balanceOf",
      "outputs": [
        {
          "internalType": "uint256",
          "name": "",
          "type": "uint256"
        }
      ],
      "stateMutability": "view",
      "type": "function"
    },
    {
      "inputs": [
        {
          "internalType": "uint256",
          "name": "tokenId",
          "type": "uint256"
        }
      ],
      "name": "burn",
      "outputs": [],
      "stateMutability": "nonpayable",
      "type": "function"
    },
    {
      "inputs": [
        {
          "internalType": "uint256",
          "name": "tokenId",
          "type": "uint256"
        }
      ],
      "name": "getApproved",
      "outputs": [
        {
          "internalType": "address",
          "name": "",
          "type": "address"
        }
      ],
      "stateMutability": "view",
      "type": "function"
    },
    {
      "inputs": [
        {
          "internalType": "address",
          "name": "owner",
          "type": "address"
        },
        {
          "internalType": "address",
          "name": "operator",
          "type": "address"
        }
      ],
      "name": "isApprovedForAll",
      "outputs": [
        {
          "internalType": "bool",
          "name": "",
          "type": "bool"
        }
      ],
      "stateMutability": "view",
      "type": "function"
    },
    {
      "inputs": [],
      "name": "name",
      "outputs": [
        {
          "internalType": "string",
          "name": "",
          "type": "string"
        }
      ],
      "stateMutability": "view",
      "type": "function"
    },
    {
      "inputs": [],
      "name": "owner",
      "outputs": [
        {
          "internalType": "address",
          "name": "",
          "type": "address"
        }
      ],
      "stateMutability": "view",
      "type": "function"
    },
    {
      "inputs": [
        {
          "internalType": "uint256",
          "name": "tokenId",
          "type": "uint256"
        }
      ],
      "name": "ownerOf",
      "outputs": [
        {
          "internalType": "address",
          "name": "",
          "type": "address"
        }
      ],
      "stateMutability": "view",
      "type": "function"
    },
    {
      "inputs": [],
      "name": "pause",
      "outputs": [],
      "stateMutability": "nonpayable",
      "type": "function"
    },
    {
      "inputs": [],
      "name": "paused",
      "outputs": [
        {
          "internalType": "bool",
          "name": "",
          "type": "bool"
        }
      ],
      "stateMutability": "view",
      "type": "function"
    },
    {
      "inputs": [],
      "name": "renounceOwnership",
      "outputs": [],
      "stateMutability": "nonpayable",
      "type": "function"
    },
    {
      "inputs": [
        {
          "internalType": "address",
          "name": "to",
          "type": "address"
        },
        {
          "internalType": "string",
          "name": "uri",
          "type": "string"
        }
      ],
      "name": "safeMint",
      "outputs": [],
      "stateMutability": "nonpayable",
      "type": "function"
    },
    {
      "inputs": [
        {
          "internalType": "address",
          "name": "from",
          "type": "address"
        },
        {
          "internalType": "address",
          "name": "to",
          "type": "address"
        },
        {
          "internalType": "uint256",
          "name": "tokenId",
          "type": "uint256"
        }
      ],
      "name": "safeTransferFrom",
      "outputs": [],
      "stateMutability": "nonpayable",
      "type": "function"
    },
    {
      "inputs": [
        {
          "internalType": "address",
          "name": "from",
          "type": "address"
        },
        {
          "internalType": "address",
          "name": "to",
          "type": "address"
        },
        {
          "internalType": "uint256",
          "name": "tokenId",
          "type": "uint256"
        },
        {
          "internalType": "bytes",
          "name": "data",
          "type": "bytes"
        }
      ],
      "name": "safeTransferFrom",
      "outputs": [],
      "stateMutability": "nonpayable",
      "type": "function"
    },
    {
      "inputs": [
        {
          "internalType": "address",
          "name": "operator",
          "type": "address"
        },
        {
          "internalType": "bool",
          "name": "approved",
          "type": "bool"
        }
      ],
      "name": "setApprovalForAll",
      "outputs": [],
      "stateMutability": "nonpayable",
      "type": "function"
    },
    {
      "inputs": [
        {
          "internalType": "bytes4",
          "name": "interfaceId",
          "type": "bytes4"
        }
      ],
      "name": "supportsInterface",
      "outputs": [
        {
          "internalType": "bool",
          "name": "",
          "type": "bool"
        }
      ],
      "stateMutability": "view",
      "type": "function"
    },
    {
      "inputs": [],
      "name": "symbol",
      "outputs": [
        {
          "internalType": "string",
          "name": "",
          "type": "string"
        }
      ],
      "stateMutability": "view",
      "type": "function"
    },
    {
      "inputs": [
        {
          "internalType": "uint256",
          "name": "tokenId",
          "type": "uint256"
        }
      ],
      "name": "tokenURI",
      "outputs": [
        {
          "internalType": "string",
          "name": "",
          "type": "string"
        }
      ],
      "stateMutability": "view",
      "type": "function"
    },
    {
      "inputs": [
        {
          "internalType": "address",
          "name": "from",
          "type": "address"
        },
        {
          "internalType": "address",
          "name": "to",
          "type": "address"
        },
        {
          "internalType": "uint256",
          "name": "tokenId",
          "type": "uint256"
        }
      ],
      "name": "transferFrom",
      "outputs": [],
      "stateMutability": "nonpayable",
      "type": "function"
    },
    {
      "inputs": [
        {
          "internalType": "address",
          "name": "newOwner",
          "type": "address"
        }
      ],
      "name": "transferOwnership",
      "outputs": [],
      "stateMutability": "nonpayable",
      "type": "function"
    },
    {
      "inputs": [],
      "name": "unpause",
      "outputs": [],
      "stateMutability": "nonpayable",
      "type": "function"
    }
  ],
  "bytecode": "0x60806040523480156200001157600080fd5b5060405162001e7e38038062001e7e833981016040819052620000349162000250565b8151829082906200004d906000906020850190620000dd565b50805162000063906001906020840190620000dd565b50506007805460ff19169055506200007b3362000083565b5050620002f7565b600780546001600160a01b03838116610100818102610100600160a81b031985161790945560405193909204169182907f8be0079c531659141344cd1fd0a4f28419497f9722a3daafe3b4186f6b6457e090600090a35050565b828054620000eb90620002ba565b90600052602060002090601f0160209004810192826200010f57600085556200015a565b82601f106200012a57805160ff19168380011785556200015a565b828001600101855582156200015a579182015b828111156200015a5782518255916020019190600101906200013d565b50620001689291506200016c565b5090565b5b808211156200016857600081556001016200016d565b634e487b7160e01b600052604160045260246000fd5b600082601f830112620001ab57600080fd5b81516001600160401b0380821115620001c857620001c862000183565b604051601f8301601f19908116603f01168101908282118183101715620001f357620001f362000183565b816040528381526020925086838588010111156200021057600080fd5b600091505b8382101562000234578582018301518183018401529082019062000215565b83821115620002465760008385830101525b9695505050505050565b600080604083850312156200026457600080fd5b82516001600160401b03808211156200027c57600080fd5b6200028a8683870162000199565b93506020850151915080821115620002a157600080fd5b50620002b08582860162000199565b9150509250929050565b600181811c90821680620002cf57607f821691505b60208210811415620002f157634e487b7160e01b600052602260045260246000fd5b50919050565b611b7780620003076000396000f3fe608060405234801561001057600080fd5b50600436106101375760003560e01c806370a08231116100b8578063a22cb4651161007c578063a22cb46514610267578063b88d4fde1461027a578063c87b56dd1461028d578063d204c45e146102a0578063e985e9c5146102b3578063f2fde38b146102ef57600080fd5b806370a0823114610218578063715018a6146102395780638456cb59146102415780638da5cb5b1461024957806395d89b411461025f57600080fd5b80633f4ba83a116100ff5780633f4ba83a146101cc57806342842e0e146101d457806342966c68146101e75780635c975abb146101fa5780636352211e1461020557600080fd5b806301ffc9a71461013c57806306fdde0314610164578063081812fc14610179578063095ea7b3146101a457806323b872dd146101b9575b600080fd5b61014f61014a36600461163d565b610302565b60405190151581526020015b60405180910390f35b61016c610354565b60405161015b91906116b2565b61018c6101873660046116c5565b6103e6565b6040516001600160a01b03909116815260200161015b565b6101b76101b23660046116fa565b61040d565b005b6101b76101c7366004611724565b610528565b6101b761055a565b6101b76101e2366004611724565b61056c565b6101b76101f53660046116c5565b610587565b60075460ff1661014f565b61018c6102133660046116c5565b6105b8565b61022b610226366004611760565b610618565b60405190815260200161015b565b6101b761069e565b6101b76106b0565b60075461010090046001600160a01b031661018c565b61016c6106c0565b6101b761027536600461177b565b6106cf565b6101b7610288366004611843565b6106de565b61016c61029b3660046116c5565b610716565b6101b76102ae3660046118bf565b610721565b61014f6102c1366004611921565b6001600160a01b03918216600090815260056020908152604080832093909416825291909152205460ff1690565b6101b76102fd366004611760565b610758565b60006001600160e01b031982166380ac58cd60e01b148061033357506001600160e01b03198216635b5e139f60e01b145b8061034e57506301ffc9a760e01b6001600160e01b03198316145b92915050565b60606000805461036390611954565b80601f016020809104026020016040519081016040528092919081815260200182805461038f90611954565b80156103dc5780601f106103b1576101008083540402835291602001916103dc565b820191906000526020600020905b8154815290600101906020018083116103bf57829003601f168201915b5050505050905090565b60006103f1826107ce565b506000908152600460205260409020546001600160a01b031690565b6000610418826105b8565b9050806001600160a01b0316836001600160a01b0316141561048b5760405162461bcd60e51b815260206004820152602160248201527f4552433732313a20617070726f76616c20746f2063757272656e74206f776e656044820152603960f91b60648201526084015b60405180910390fd5b336001600160a01b03821614806104a757506104a781336102c1565b6105195760405162461bcd60e51b815260206004820152603d60248201527f4552433732313a20617070726f76652063616c6c6572206973206e6f7420746f60448201527f6b656e206f776e6572206f7220617070726f76656420666f7220616c6c0000006064820152608401610482565b610523838361082d565b505050565b610533335b8261089b565b61054f5760405162461bcd60e51b81526004016104829061198f565b61052383838361091a565b610562610a8b565b61056a610aeb565b565b610523838383604051806020016040528060008152506106de565b6105903361052d565b6105ac5760405162461bcd60e51b81526004016104829061198f565b6105b581610b3d565b50565b6000818152600260205260408120546001600160a01b03168061034e5760405162461bcd60e51b8152602060048201526018602482015277115490cdcc8c4e881a5b9d985b1a59081d1bdad95b88125160421b6044820152606401610482565b60006001600160a01b0382166106825760405162461bcd60e51b815260206004820152602960248201527f4552433732313a2061646472657373207a65726f206973206e6f7420612076616044820152683634b21037bbb732b960b91b6064820152608401610482565b506001600160a01b031660009081526003602052604090205490565b6106a6610a8b565b61056a6000610b46565b6106b8610a8b565b61056a610ba0565b60606001805461036390611954565b6106da338383610bdd565b5050565b6106e8338361089b565b6107045760405162461bcd60e51b81526004016104829061198f565b61071084848484610cac565b50505050565b606061034e82610cdf565b610729610a8b565b600061073460085490565b9050610744600880546001019055565b61074e8382610de8565b6105238183610e02565b610760610a8b565b6001600160a01b0381166107c55760405162461bcd60e51b815260206004820152602660248201527f4f776e61626c653a206e6577206f776e657220697320746865207a65726f206160448201526564647265737360d01b6064820152608401610482565b6105b581610b46565b6000818152600260205260409020546001600160a01b03166105b55760405162461bcd60e51b8152602060048201526018602482015277115490cdcc8c4e881a5b9d985b1a59081d1bdad95b88125160421b6044820152606401610482565b600081815260046020526040902080546001600160a01b0319166001600160a01b0384169081179091558190610862826105b8565b6001600160a01b03167f8c5be1e5ebec7d5bd14f71427d1e84f3dd0314c0f7b2291e5b200ac8c7c3b92560405160405180910390a45050565b6000806108a7836105b8565b9050806001600160a01b0316846001600160a01b031614806108ee57506001600160a01b0380821660009081526005602090815260408083209388168352929052205460ff165b806109125750836001600160a01b0316610907846103e6565b6001600160a01b0316145b949350505050565b826001600160a01b031661092d826105b8565b6001600160a01b0316146109535760405162461bcd60e51b8152600401610482906119dc565b6001600160a01b0382166109b55760405162461bcd60e51b8152602060048201526024808201527f4552433732313a207472616e7366657220746f20746865207a65726f206164646044820152637265737360e01b6064820152608401610482565b6109c28383836001610e9c565b826001600160a01b03166109d5826105b8565b6001600160a01b0316146109fb5760405162461bcd60e51b8152600401610482906119dc565b600081815260046020908152604080832080546001600160a01b03199081169091556001600160a01b0387811680865260038552838620805460001901905590871680865283862080546001019055868652600290945282852080549092168417909155905184937fddf252ad1be2c89b69c2b068fc378daa952ba7f163c4a11628f55a4df523b3ef91a4505050565b6007546001600160a01b0361010090910416331461056a5760405162461bcd60e51b815260206004820181905260248201527f4f776e61626c653a2063616c6c6572206973206e6f7420746865206f776e65726044820152606401610482565b610af3610f24565b6007805460ff191690557f5db9ee0a495bf2e6ff9c91a7834c1ba4fdd244a5e8aa4e537bd38aeae4b073aa335b6040516001600160a01b03909116815260200160405180910390a1565b6105b581610f6d565b600780546001600160a01b03838116610100818102610100600160a81b031985161790945560405193909204169182907f8be0079c531659141344cd1fd0a4f28419497f9722a3daafe3b4186f6b6457e090600090a35050565b610ba8610fad565b6007805460ff191660011790557f62e78cea01bee320cd4e420270b5ea74000d11b0c9f74754ebdbfc544b05a258610b203390565b816001600160a01b0316836001600160a01b03161415610c3f5760405162461bcd60e51b815260206004820152601960248201527f4552433732313a20617070726f766520746f2063616c6c6572000000000000006044820152606401610482565b6001600160a01b03838116600081815260056020908152604080832094871680845294825291829020805460ff191686151590811790915591519182527f17307eab39ab6107e8899845ad3d59bd9653f200f220920489ca2b5937696c31910160405180910390a3505050565b610cb784848461091a565b610cc384848484610ff3565b6107105760405162461bcd60e51b815260040161048290611a21565b6060610cea826107ce565b60008281526006602052604081208054610d0390611954565b80601f0160208091040260200160405190810160405280929190818152602001828054610d2f90611954565b8015610d7c5780601f10610d5157610100808354040283529160200191610d7c565b820191906000526020600020905b815481529060010190602001808311610d5f57829003601f168201915b505050505090506000610d9a60408051602081019091526000815290565b9050805160001415610dad575092915050565b815115610ddf578082604051602001610dc7929190611a73565b60405160208183030381529060405292505050919050565b61091284611100565b6106da828260405180602001604052806000815250611174565b6000828152600260205260409020546001600160a01b0316610e7d5760405162461bcd60e51b815260206004820152602e60248201527f45524337323155524953746f726167653a2055524920736574206f66206e6f6e60448201526d32bc34b9ba32b73a103a37b5b2b760911b6064820152608401610482565b6000828152600660209081526040909120825161052392840190611558565b6001811115610710576001600160a01b03841615610ee2576001600160a01b03841660009081526003602052604081208054839290610edc908490611ab8565b90915550505b6001600160a01b03831615610710576001600160a01b03831660009081526003602052604081208054839290610f19908490611acf565b909155505050505050565b60075460ff1661056a5760405162461bcd60e51b815260206004820152601460248201527314185d5cd8589b194e881b9bdd081c185d5cd95960621b6044820152606401610482565b610f76816111a7565b60008181526006602052604090208054610f8f90611954565b1590506105b55760008181526006602052604081206105b5916115dc565b60075460ff161561056a5760405162461bcd60e51b815260206004820152601060248201526f14185d5cd8589b194e881c185d5cd95960821b6044820152606401610482565b60006001600160a01b0384163b156110f557604051630a85bd0160e11b81526001600160a01b0385169063150b7a0290611037903390899088908890600401611ae7565b602060405180830381600087803b15801561105157600080fd5b505af1925050508015611081575060408051601f3d908101601f1916820190925261107e91810190611b24565b60015b6110db573d8080156110af576040519150601f19603f3d011682016040523d82523d6000602084013e6110b4565b606091505b5080516110d35760405162461bcd60e51b815260040161048290611a21565b805181602001fd5b6001600160e01b031916630a85bd0160e11b149050610912565b506001949350505050565b606061110b826107ce565b600061112260408051602081019091526000815290565b90506000815111611142576040518060200160405280600081525061116d565b8061114c8461124a565b60405160200161115d929190611a73565b6040516020818303038152906040525b9392505050565b61117e83836112e7565b61118b6000848484610ff3565b6105235760405162461bcd60e51b815260040161048290611a21565b60006111b2826105b8565b90506111c2816000846001610e9c565b6111cb826105b8565b600083815260046020908152604080832080546001600160a01b03199081169091556001600160a01b0385168085526003845282852080546000190190558785526002909352818420805490911690555192935084927fddf252ad1be2c89b69c2b068fc378daa952ba7f163c4a11628f55a4df523b3ef908390a45050565b6060600061125783611480565b600101905060008167ffffffffffffffff811115611277576112776117b7565b6040519080825280601f01601f1916602001820160405280156112a1576020820181803683370190505b5090508181016020015b600019016f181899199a1a9b1b9c1cb0b131b232b360811b600a86061a8153600a85049450846112da576112df565b6112ab565b509392505050565b6001600160a01b03821661133d5760405162461bcd60e51b815260206004820181905260248201527f4552433732313a206d696e7420746f20746865207a65726f20616464726573736044820152606401610482565b6000818152600260205260409020546001600160a01b0316156113a25760405162461bcd60e51b815260206004820152601c60248201527f4552433732313a20746f6b656e20616c7265616479206d696e746564000000006044820152606401610482565b6113b0600083836001610e9c565b6000818152600260205260409020546001600160a01b0316156114155760405162461bcd60e51b815260206004820152601c60248201527f4552433732313a20746f6b656e20616c7265616479206d696e746564000000006044820152606401610482565b6001600160a01b038216600081815260036020908152604080832080546001019055848352600290915280822080546001600160a01b0319168417905551839291907fddf252ad1be2c89b69c2b068fc378daa952ba7f163c4a11628f55a4df523b3ef908290a45050565b60008072184f03e93ff9f4daa797ed6e38ed64bf6a1f0160401b83106114bf5772184f03e93ff9f4daa797ed6e38ed64bf6a1f0160401b830492506040015b6d04ee2d6d415b85acef810000000083106114eb576d04ee2d6d415b85acef8100000000830492506020015b662386f26fc10000831061150957662386f26fc10000830492506010015b6305f5e1008310611521576305f5e100830492506008015b612710831061153557612710830492506004015b60648310611547576064830492506002015b600a831061034e5760010192915050565b82805461156490611954565b90600052602060002090601f01602090048101928261158657600085556115cc565b82601f1061159f57805160ff19168380011785556115cc565b828001600101855582156115cc579182015b828111156115cc5782518255916020019190600101906115b1565b506115d8929150611612565b5090565b5080546115e890611954565b6000825580601f106115f8575050565b601f0160209004906000526020600020908101906105b591905b5b808211156115d85760008155600101611613565b6001600160e01b0319811681146105b557600080fd5b60006020828403121561164f57600080fd5b813561116d81611627565b60005b8381101561167557818101518382015260200161165d565b838111156107105750506000910152565b6000815180845261169e81602086016020860161165a565b601f01601f19169290920160200192915050565b60208152600061116d6020830184611686565b6000602082840312156116d757600080fd5b5035919050565b80356001600160a01b03811681146116f557600080fd5b919050565b6000806040838503121561170d57600080fd5b611716836116de565b946020939093013593505050565b60008060006060848603121561173957600080fd5b611742846116de565b9250611750602085016116de565b9150604084013590509250925092565b60006020828403121561177257600080fd5b61116d826116de565b6000806040838503121561178e57600080fd5b611797836116de565b9150602083013580151581146117ac57600080fd5b809150509250929050565b634e487b7160e01b600052604160045260246000fd5b600067ffffffffffffffff808411156117e8576117e86117b7565b604051601f8501601f19908116603f01168101908282118183101715611810576118106117b7565b8160405280935085815286868601111561182957600080fd5b858560208301376000602087830101525050509392505050565b6000806000806080858703121561185957600080fd5b611862856116de565b9350611870602086016116de565b925060408501359150606085013567ffffffffffffffff81111561189357600080fd5b8501601f810187136118a457600080fd5b6118b3878235602084016117cd565b91505092959194509250565b600080604083850312156118d257600080fd5b6118db836116de565b9150602083013567ffffffffffffffff8111156118f757600080fd5b8301601f8101851361190857600080fd5b611917858235602084016117cd565b9150509250929050565b6000806040838503121561193457600080fd5b61193d836116de565b915061194b602084016116de565b90509250929050565b600181811c9082168061196857607f821691505b6020821081141561198957634e487b7160e01b600052602260045260246000fd5b50919050565b6020808252602d908201527f4552433732313a2063616c6c6572206973206e6f7420746f6b656e206f776e6560408201526c1c881bdc88185c1c1c9bdd9959609a1b606082015260800190565b60208082526025908201527f4552433732313a207472616e736665722066726f6d20696e636f72726563742060408201526437bbb732b960d91b606082015260800190565b60208082526032908201527f4552433732313a207472616e7366657220746f206e6f6e20455243373231526560408201527131b2b4bb32b91034b6b83632b6b2b73a32b960711b606082015260800190565b60008351611a8581846020880161165a565b835190830190611a9981836020880161165a565b01949350505050565b634e487b7160e01b600052601160045260246000fd5b600082821015611aca57611aca611aa2565b500390565b60008219821115611ae257611ae2611aa2565b500190565b6001600160a01b0385811682528416602082015260408101839052608060608201819052600090611b1a90830184611686565b9695505050505050565b600060208284031215611b3657600080fd5b815161116d8161162756fea2646970667358221220f9ee40ca2daf3b6b9d0dc540dd46522bd0ea1ffde90d6765df4e20a3e5671d4264736f6c63430008090033",
  "linkReferences": {},
  "deployedLinkReferences": {}
}